:020000040800F2
:100000000050002085170008C9170008C91700080C
:10001000C9170008C9170008C91700080000000028
:10002000000000000000000000000000C9170008E8
:10003000C917000800000000C917000809120008CD
:10004000C9170008C9170008C9170008C917000810
:10005000C9170008C9170008C9170008C917000800
:10006000C9170008C9170008C9170008C9170008F0
:1000700033150008C9170008C9170008C917000878
:10008000C9170008C9170008C9170008C9170008D0
:10009000C9170008C9170008C9170008C9170008C0
:1000A000C9170008C9170008C9170008C9170008B0
:1000B000C9170008C9170008C9170008C9170008A0
:1000C000C9170008C9170008C9170008C917000890
:1000D000C9170008C9170008C9170008311500081A
:1000E000C9170008C9170008C91700080000000058
:1000F0000000000000000000000000000000000000
:0C01000000000000000000005FF808F1A3
:10010C004FEA4102B2F1E04324BFB3F5001CDCF12D
:10011C00FE5C0DD901F0004C4FEAC0024CEA507065
:10012C00B2F1004F40EB830008BF20F00100704794
:10013C0011F0804F21D113F13872BCBF01F0004097
:10014C00704741F480114FEA5252C2F11802C2F1C9
:10015C00200C10FA0CF320FA02F018BF40F001004A
:10016C004FEAC1234FEAD32303FA0CFC40EA0C00FC
:10017C0023FA02F34FEA4303CCE77FEA625307D139
:10018C0050EA01331EBF4FF0FE4040F44000704770
:10019C0001F0004040F0FE4040F40000704700BF0A
:1001AC0080F0004002E000BF81F0004142001FBF20
:1001BC005FEA410392EA030F7FEA226C7FEA236C29
:1001CC006AD04FEA1262D2EB1363C1BFD21841401E
:1001DC0048404140B8BF5B42192B88BF704710F0B4
:1001EC00004F40F4000020F07F4018BF404211F057
:1001FC00004F41F4000121F07F4118BF494292EABF
:10020C00030F3FD0A2F1010241FA03FC10EB0C00EA
:10021C00C3F1200301FA03F100F0004302D5494277
:10022C0060EB4000B0F5000F13D3B0F1807F06D324
:10023C0040084FEA310102F10102FE2A51D2B1F11C
:10024C00004F40EBC25008BF20F0010040EA030011
:10025C007047490040EB000010F4000FA2F10102BE
:10026C00EDD1B0FA80FCACF1080CB2EB0C0200FA48
:10027C000CF0AABF00EBC25052421843BCBFD04096
:10028C001843704792F0000F81F4000106BF80F410
:10029C0000000132013BB5E74FEA41037FEA226CD3
:1002AC0018BF7FEA236C21D092EA030F04D092F09E
:1002BC00000F08BF0846704790EA010F1CBF0020D2
:1002CC00704712F07F4F04D1400028BF40F000402F
:1002DC00704712F100723CBF00F50000704700F04F
:1002EC00004343F0FE4040F4000070477FEA226276
:1002FC0016BF08467FEA23630146420206BF5FEA47
:10030C00412390EA010F40F4800070474FF0000346
:10031C0004E000BF10F0004348BF40425FEA000C0D
:10032C0008BF704743F0964301464FF000001CE0B5
:10033C0050EA010208BF70474FF000030AE000BF0B
:10034C0050EA010208BF704711F0004302D5404249
:10035C0061EB41015FEA010C02BF844601460020BB
:10036C0043F0B64308BFA3F18053A3F50003BCFAD6
:10037C008CF2083AA3EBC25310DB01FA02FC634483
:10038C0000FA02FCC2F12002BCF1004F20FA02F28A
:10039C0043EB020008BF20F00100704702F120027D
:1003AC0001FA02FCC2F1200250EA4C0021FA02F2DE
:1003BC0043EB020008BF20EADC7070474FF0FF0CE3
:1003CC001CEAD0521EBF1CEAD15392EA0C0F93EADE
:1003DC000C0F6FD01A4480EA010C400218BF5FEA80
:1003EC0041211ED04FF0006343EA501043EA5111F3
:1003FC00A0FB01310CF00040B1F5000F3EBF4900ED
:10040C0041EAD3715B0040EA010062F17F02FD2AF0
:10041C001DD8B3F1004F40EBC25008BF20F00100D3
:10042C00704790F0000F0CF0004C08BF49024CEAEA
:10043C00502040EA51207F3AC2BFD2F1FF0340EA7C
:10044C00C250704740F400004FF00003013A5DDCED
:10045C0012F1190FDCBF00F000407047C2F100022E
:10046C00410021FA02F1C2F1200200FA02FC5FEA1B
:10047C00310040F1000053EA4C0308BF20EADC7065
:10048C00704792F0000F00F0004C02BF400010F4D7
:10049C00000F013AF9D040EA0C0093F0000F01F084
:1004AC00004C02BF490011F4000F013BF9D041EAA6
:1004BC000C018FE70CEAD15392EA0C0F18BF93EAA8
:1004CC000C0F0AD030F0004C18BF31F0004CD8D1D2
:1004DC0080EA010000F00040704790F0000F17BF59
:1004EC0090F0004F084691F0000F91F0004F14D09F
:1004FC0092EA0C0F01D142020FD193EA0C0F03D1F7
:10050C004B0218BF084608D180EA010000F00040F9
:10051C0040F0FE4040F40000704740F0FE4040F4D4
:10052C00400070474FF0FF0C1CEAD0521EBF1CEA73
:10053C00D15392EA0C0F93EA0C0F69D0A2EB030291
:10054C0080EA010C49024FEA402037D04FF080532B
:10055C0043EA111143EA10130CF000408B4238BFF0
:10056C005B0042F17D024FF4000C8B4224BF5B1AFE
:10057C0040EA0C00B3EB510F24BFA3EB510340EA4C
:10058C005C00B3EB910F24BFA3EB910340EA9C00FA
:10059C00B3EBD10F24BFA3EBD10340EADC001B016A
:1005AC0018BF5FEA1C1CE0D1FD2A3FF650AF8B420E
:1005BC0040EBC25008BF20F0010070470CF0004C1B
:1005CC004CEA50207F32C2BFD2F1FF0340EAC25046
:1005DC00704740F400004FF00003013A37E792F007
:1005EC00000F00F0004C02BF400010F4000F013A65
:1005FC00F9D040EA0C0093F0000F01F0004C02BF60
:10060C00490011F4000F013BF9D041EA0C0195E7C8
:10061C000CEAD15392EA0C0F08D142027FF47DAF61
:10062C0093EA0C0F7FF470AF084676E793EA0C0F51
:10063C0004D14B023FF44CAF08466EE730F0004C4F
:10064C0018BF31F0004CCAD130F000427FF45CAFDF
:10065C0031F000437FF43CAF5FE700BF4FF0FF3C4D
:10066C0006E000BF4FF0010C02E000BF4FF0010CA0
:10067C004DF804CD4FEA40024FEA41037FEA226C69
:10068C0018BF7FEA236C11D001B052EA530C18BF8B
:10069C0090EA010F58BFB2EB030088BFC81738BFF0
:1006AC006FEAE17018BF40F0010070477FEA226CDE
:1006BC0002D15FEA402C05D17FEA236CE4D15FEADA
:1006CC00412CE1D05DF8040B704700BF844608460E
:1006DC006146FFE70FB5FFF7C9FF002848BF10F1CF
:1006EC00000F0FBD4DF808EDFFF7F4FF0CBF012014
:1006FC0000205DF808FB00BF4DF808EDFFF7EAFF9E
:10070C0034BF012000205DF808FB00BF4DF808ED58
:10071C00FFF7E0FF94BF012000205DF808FB00BF4D
:10072C004DF808EDFFF7D2FF94BF012000205DF8D3
:10073C0008FB00BF4DF808EDFFF7C8FF34BF0120E0
:10074C0000205DF808FB00BF4FEA4002B2F1FE4FFB
:10075C000FD34FF09E03B3EB12620DD94FEA002377
:10076C0043F0004310F0004F23FA02F018BF404250
:10077C0070474FF00000704712F1610F01D1420237
:10078C0005D110F0004008BF6FF0004070474FF0EB
:10079C00000070477BB972B90029BEBF00204FF032
:1007AC00004106E008BF00281CBF6FF000414FF06D
:1007BC00FF3000F03BB882B0EC462DE9005000F061
:1007CC0005F8DDF804E002B00CBC70472DE9F041EF
:1007DC00069C904606460F461D4600F029F808FB7D
:1007EC0001FCA8FB002300FB05C5B21A2B4467EBE8
:1007FC0003038646C4E90023BDE8F0812DE9F843E4
:10080C00089E1746804689461D4600F067F900FB96
:10081C0005F3A0FB074507FB0137B8EB04043D4487
:10082C0069EB0505C6E90045BDE8F883704700BFD4
:10083C0000292DE9F043C0F2A8800026002BC0F25D
:10084C009E8081468E4690469C46174604460D4631
:10085C00002B3DD18A4259D9B2FA82F33BB1C3F194
:10086C0020029D4020FA02F29F4015439C40390C17
:10087C00B5FBF1F01FFA87FE01FB10550EFB00F3E0
:10088C00220C42EA0545AB4209D9ED1900F1FF32C1
:10089C0080F00B81AB4240F2088102383D44ED1AE6
:1008AC00B5FBF1F301FB13550EFB03FEA4B244EAB6
:1008BC000545AE4508D9ED1903F1FF3280F0F780FC
:1008CC00AE4540F2F480023B43EA0043002203E0D1
:1008DC008B420FD900221346341C18BF01246042EE
:1008EC004FF0000565EB4501584051400019694136
:1008FC00BDE8F083B3FA83F2002A40F089808B4282
:10090C0002D3804500F2E2800123E5E712B901230E
:10091C00B3FBF2F7B7FA87F8B8F1000F3BD1ED1B38
:10092C004FEA174C1FFA87FE0122B5FBFCF00CFBBB
:10093C0010550EFB00F3210C41EA0545AB4207D9DB
:10094C00ED1900F1FF3102D2AB4200F2C380084630
:10095C00ED1AB5FBFCF30CFB13550EFB03FEA4B216
:10096C0044EA0545AE4507D9ED1903F1FF3102D232
:10097C00AE4500F2AD800B4643EA0043ACE7524271
:10098C006FEA060663EB43035BE7404261EB410110
:10099C004FF0FF3652E707FA08F7C8F1200225FAA4
:1009AC0002F34FEA174CB3FBFCF11FFA87FE0CFB6A
:1009BC00113324FA02F205FA08F50EFB01F92A4369
:1009CC00100C40EA0343994504FA08F407D9DB19E3
:1009DC0001F1FF3078D2994576D902393B44C9EB05
:1009EC000303B3FBFCF00CFB10330EFB00F592B2CF
:1009FC0042EA03439D4207D9DB1900F1FF325FD273
:100A0C009D425DD902383B445D1B40EA01428CE7B4
:100A1C00C2F1200328FA03F10CFA02FC41EA0C0C97
:100A2C004FEA1C402EFA03F1B1FBF0F51FFA8CF7DC
:100A3C0000FB151129FA03F30EFA02FE07FB05F968
:100A4C0043EA0E0E4FEA1E4343EA0141894508FA78
:100A5C0002F808D911EB0C0105F1FF3332D28945AC
:100A6C0030D9023D6144C9EB0101B1FBF0F300FB4D
:100A7C00131107FB03F71FFA8EFE4EEA014E774562
:100A8C0008D91EEB0C0E03F1FF3117D2774515D99F
:100A9C00023BE64443EA0543A3FB0889C7EB0E0E71
:100AAC00CE4509D305D0002216E71046F7E61346CB
:100ABC000AE794404445F6D2013BF4E70B46E9E7DC
:100ACC001046A1E71D46CEE7014688E7134603E72B
:100ADC00023B51E702383D443AE700BF2DE9F043B1
:100AEC00002B44D18A42154604464FD9B2FA82F7FC
:100AFC000E464FB1C7F12003B94020FA03F602FAB3
:100B0C0007F50E4300FA07F42F0CB6FBF7F01FFAAB
:100B1C0085FE07FB10620EFB00F1260C46EA024331
:100B2C00994209D95B1900F1FF3280F0EE809942AD
:100B3C0040F2EB8002382B44591AB1FBF7F307FB58
:100B4C0013110EFB03FEA4B244EA01418E4508D9F1
:100B5C00491903F1FF3280F0DA808E4540F2D780DC
:100B6C00023B43EA004000263146BDE8F0838B424D
:100B7C0047D8B3FA83F6002E48D18B4202D3824277
:100B8C0000F2CF8001203146BDE8F08312B9012577
:100B9C00B5FBF2F5B5FA85FCBCF1000F78D1491B19
:100BAC002F0C1FFA85FE0126B1FBF7F007FB101185
:100BBC000EFB00F2230C43EA01418A4207D9491982
:100BCC0000F1FF3302D28A4200F2BC801846891A27
:100BDC00B1FBF7F307FB13110EFB03FEA4B244EABF
:100BEC000142964508D9521903F1FF3180F09180EA
:100BFC00964540F28E80023B43EA00403146BDE808
:100C0C00F083002630463146BDE8F083C6F120045F
:100C1C0022FA04F5B3402B4321FA04F74FEA1348A8
:100C2C00B7FBF8FC1FFA83F908FB1C7720FA04FECB
:100C3C0001FA06F509FB0CF44EEA05054FEA154ED0
:100C4C004EEA0747BC4202FA06F204D9FF180CF12F
:100C5C00FF3168D38C463F1BB7FBF8F408FB1477C5
:100C6C0009FB04F9ADB245EA0741894504D9C91815
:100C7C0004F1FF355DD32C4644EA0C44A4FB02235B
:100C8C00C9EB0101994249D345D0204600266BE7B8
:100C9C00CCF1200405FA0CF521FA04F32A0CB3FB71
:100CAC00F2F61FFA85FE02FB163820FA04F701FA59
:100CBC000CF10EFB06F90F433C0C44EA0843994532
:100CCC0000FA0CF407D95B1906F1FF3138D29945BB
:100CDC0036D9023E2B44C9EB0303B3FBF2F002FB03
:100CEC0010330EFB00F1BFB247EA0343994207D918
:100CFC005B1900F1FF3721D299421FD902382B44DE
:100D0C001746591A40EA06464EE7104614E71346B2
:100D1C0027E70B4670E7B0409042B6D2601E002623
:100D2C0022E7304620E7BC4294D9ACF1020C1F44B8
:100D3C0091E789459FD9023C19449DE73846DFE786
:100D4C000E46C8E70238294441E700BFC27810B507
:100D5C0003780AB3164A03F16043D4684278E4433B
:100D6C00C4F30224C4F1040102FA01F10F22E2409F
:100D7C00847803F5614322400A431201D2B283F80E
:100D8C00002303780122590903F01F0302FA03F32D
:100D9C00084A42F8213010BD5A09012103F01F0303
:100DAC00994002F12003034A42F8231010BD00BF02
:100DBC0000ED00E000E100E0034A136803F03803A3
:100DCC0018431060704700BF00200240044B1A68A3
:100DDC0022F010021A601A6810431860704700BFA6
:100DEC0000200240CA78F0B502F00F03D20644BFCF
:100DFC008A7813430A78DAB10268002401260D8838
:100E0C00A6403540B5420FD1A7000F26BE4022EABE
:100E1C00060203FA07F63243CE78282E01D145613B
:100E2C0002E0482E08BF05610134082CE6D10260AF
:100E3C000A88FF2A1DD94268002404F108050126FE
:100E4C00AE400D883540B5420FD1A7000F26BE40ED
:100E5C0022EA060203FA07F63243CE78282E08BFA0
:100E6C004561CE78482E08BF05610134082CE4D1C9
:100E7C004260F0BD01617047416170470D4B1A68CB
:100E8C0042F001021A6059680B4A0A405A601A680B
:100E9C0022F0847222F480321A601A6822F48022C2
:100EAC001A605A6822F4FE025A604FF41F029A60CC
:100EBC00704700BF001002400000FFF80C4BB0F56B
:100ECC00803F1A6822F480321A601A6822F4802259
:100EDC001A6003D0B0F5802F04D070471A6842F422
:100EEC00803202E01A6842F4A0221A60704700BFF8
:100EFC0000100240034A536823F47C13194308433F
:100F0C005060704700100240014B1860704700BFE2
:100F1C0060004242034A536823F0030318435060B5
:100F2C00704700BF00100240024B586800F00C00E4
:100F3C00704700BF00100240034A536823F0F003CF
:100F4C0018435060704700BF00100240034A5368BA
:100F5C0023F4E06318435060704700BF0010024058
:100F6C00034A536823F4605343EAC000506070474F
:100F7C000010024010B51D4A536803F00C03042BFB
:100F8C0003D0082B03D01A4B11E01A4B0FE0536817
:100F9C005168C3F38343CC0303F1020301D4164914
:100FAC0004E0516889034CBF114912494B4303605B
:100FBC005368124CC3F30313E15C0368CB404360EA
:100FCC005168C1F30221615C23FA01F1816051681F
:100FDC00C1F3C221615CCB40C36052680849C2F3C3
:100FEC0081328A5CB3FBF2F3036110BD0010024046
:100FFC0000127A000024F40000093D0004000020D7
:10100C0000000020044B9A6909B1104301E022EA68
:10101C0000009861704700BF00100240044BDA6971
:10102C0009B1104301E022EA0000D861704700BF0B
:10103C00001002404209012A074B01D11B6803E052
:10104C00022A0CBF1B6A5B6A00F01F0023FA00F037
:10105C0000F00100704700BF0010024007B50023EC
:10106C0001933120FFF7E6FF019B01330193019BB4
:10107C00B3F5A06F01D00028F3D03120FFF7DAFFD1
:10108C00003018BF012003B05DF804FB03884A88C8
:10109C0010B503F441540B8813438A881343CA8850
:1010AC0013430A8913434A8913438A891343CA8910
:1010BC00134323439BB20380838B23F400631B04F1
:1010CC001B0C83830B8A038210BD038819B19BB25E
:1010DC0043F0400303E023F040031B041B0C03808C
:1010EC00704781817047808980B2704703891942AB
:1010FC0014BF01200020704730B50D460446038A0A
:10110C00CA889BB223F44053134303828289098912
:10111C00AB8892B20B43698922F4B0520B4322F094
:10112C000C0213439BB28381838AAA899BB223F45A
:10113C00407387B01343838201A8FFF71BFF039B07
:10114C00049A0E498C4218BF1A46192353432A6835
:10115C009200B3FBF2F26423B2FBF3F0000101093D
:10116C0003FB112212013232B2FBF3F303F00F0333
:10117C0003439BB2238107B030BD00BF0038014050
:10118C00838919B19BB243F4005303E023F4005359
:10119C001B041B0C8381704710B5C1F3421401234F
:1011AC0001F01F01012C03FA01F301D10C3003E013
:1011BC00022C0CBF1030143012B10268134302E041
:1011CC00026822EA0303036010BD000008B500F0BA
:1011DC00ABF900F0A7F800F0B7F8044600F0C8F837
:1011EC00044903462246044800F0B8FA642000F093
:1011FC000DF9F0E7C0180008191500087047000039
:10120C00F0B54FF4804087B0294C0121FFF706FF61
:10121C0009200121FFF7F6FE4FF48055012610231B
:10122C00204669468DF803301827ADF800508DF82C
:10123C000260FFF7D7FD4FF42043204669468DF836
:10124C000370ADF80030FFF7CDFD04238DF80330AB
:10125C0020464FF480436946ADF80030FFF7C2FDDD
:10126C00ADF81070134F00234FF48272ADF80430B8
:10127C00ADF80620ADF808304FF40072ADF80A3026
:10128C00ADF80C30ADF812303846072301A9ADF893
:10129C000E20ADF81430FFF7F9FE38463146FFF753
:1012AC0014FF20462946FFF7E5FD07B0F0BD00BF4F
:1012BC00000C01400038004010B504460A480221D9
:1012CC00FFF714FF0028F9D007482146FFF709FF64
:1012DC0005480121FFF70AFF0028F9D00248FFF763
:1012EC0002FFC0B210BD00BF0038004070B50C4604
:1012FC0006464FF480510A48FFF7BEFD013C751EAF
:10130C003444A54205D0FF20FFF7D6FF05F8010FA6
:10131C00F7E703484FF48051FFF7ACFD002070BD98
:10132C00000C0140FFF76CBF37B505460C4601A811
:10133C000221FFF7DBFF9DF8053000202B709DF894
:10134C000430237003B030BD10B5074C074821465C
:10135C00FFF7EAFF28B923789B0814BF012000206F
:10136C0010BD002010BD00BF1B0000201C00002081
:10137C0038B5084D084C28462146FFF7D5FF38B93B
:10138C002878237800F07F00DB0843EA401038BD52
:10139C00002038BD1C0000201B00002010B5FFF7FA
:1013AC006DFD4FF48030FFF789FDFFF757FE0128E4
:1013BC000446FAD11020FFF709FD0220FFF7FCFCD0
:1013CC008020FFF7B9FD0020FFF7CAFD4FF48060C5
:1013DC00FFF7BCFD4FF480304FF4E011FFF78AFDAE
:1013EC002046FFF791FD3920FFF724FE0028FAD0A4
:1013FC000220FFF78FFDFFF797FD0828FBD1012096
:10140C000146BDE81040FFF7FDBD00000B4B00226C
:10141C001B8858430A4B58609A601A6842F00102C4
:10142C001A601968064A01F001110129F9D01368F4
:10143C0023F0010313600023936070471800002011
:10144C0010E000E030B5042087B00121FFF7DAFD91
:10145C00254C4FF480400121FFF7D4FD4FF48063FD
:10146C00ADF800302046042369468DF80330FFF7B1
:10147C00B9FC4FF40073ADF8003003231B4D8DF80D
:10148C0002302046182369468DF80330FFF7AAFC7A
:10149C004FF4E133002402A9029328460C23ADF843
:1014AC001230ADF80C40ADF80E40ADF81040ADF870
:1014BC001440FFF721FE25238DF805408DF80640DA
:1014CC0001A801248DF804308DF80740FFF73EFC8D
:1014DC002846224640F22551FFF75EFE284621465B
:1014EC00FFF74EFE07B030BD000801400038014048
:1014FC000844814207D0044B1A881206FBD511F818
:10150C00012B9A80F5E770470038014007B502A916
:10151C0041F8040D0120FFF7EBFF9DF8040003B028
:10152C005DF804FB7047704710B5074C23784BB936
:10153C00FFF734FFFFF786FF0448054900F00EF96A
:10154C000123237010BD00BF1A00002019150008DC
:10155C00E71800080123092804DD0A22013390FB57
:10156C00F2F0F8E7184670472DE9F84F0D46824621
:10157C00084693461C46FFF7EDFF002D064604D1A6
:10158C003020D0470120BDE8F88F05DABBF10A0FF7
:10159C0002D12D206D42D047A6420ADAA41B264662
:1015AC00002E03DD3020D047013EF9E724EAE47435
:1015BC0000E00024012600273B4628460021324645
:1015CC00FFF7E8F850EA0103D8464FEAEB7907D069
:1015DC0006FB09F30BFB0733A6FB0B671F44EBE77A
:1015EC00304639464B464246FFF7D4F806460F467E
:1015FC0056EA07030ED032463B4628460021FFF739
:10160C00C9F842464B46FFF7C5F8044B0134985CC9
:10161C00D047E5E72046BDE8F88F00BFF418000876
:10162C002DE9F04707460E46154600243078002871
:10163C0000F08E80252840F08780474B4FF006093C
:10164C0019680136324612F8013BC81840788007F9
:10165C000AD12E2BF5D17378C8184078460748BFAD
:10166C00A3F130091646ECE7662B16461BD003D8BF
:10167C00582B0DD0642B04E0732B55D0782B07D04E
:10168C00692BD3D105F10408384629680A2204E0F5
:10169C003846296805F1040810220023FFF764FF7F
:1016AC0045460444C2E7073525F00703D3E900019A
:1016BC0003F10805FEF724FD00218046FFF71CF816
:1016CC0020B12D20B84708F1004801344046FFF7FF
:1016DC003BF88246002351460A223846FFF744FF66
:1016EC0004442E20B8475046FEF714FE01464046EF
:1016FC00FEF75AFD0134804601230A204B4503DADC
:10170C000A2250430133F9E7FEF704FE0146404636
:10171C00FEF754FEFFF718F80A2201464B463846EE
:10172C00FFF722FF044481E7D5F8008005F1040996
:10173C004546C8EB04032B4415F8010B08B1B84718
:10174C00F7E74D461C4671E70136B84701346DE7A3
:10175C002046BDE8F08700BF140000200EB403B58E
:10176C0003AA52F8041B0192FFF75AFF02B05DF86E
:10177C0004EB03B070470000002103E00A4B5B58F8
:10178C004350043109480A4B42189A42F6D3094A8D
:10179C0002E0002342F8043B074B9A42F9D300F0D5
:1017AC000FF8FFF713FD7047101A00080000002017
:1017BC00180000201800002020000020FEE7000088
:1017CC00384B82B01A6842F001021A605968364AE6
:1017DC000A405A601A6822F0847222F480321A602D
:1017EC001A6822F480221A605A6822F4FE025A60A7
:1017FC004FF41F029A600022009201921A6842F480
:10180C0080321A601A6802F400320192009A013296
:10181C000092019A1AB9009AB2F5A06FF2D11A6827
:10182C0012F4003218BF01220192019A012A05D04C
:10183C001E4B4FF000629A6002B070471C4A116850
:10184C0041F010011160116821F003011160116861
:10185C0041F0020111605A685A605A685A605A681D
:10186C0042F480625A605A6822F47C125A605A68B8
:10187C0042F4E8125A601A6842F080721A601968D1
:10188C00084A8901FBD5516821F003015160516868
:10189C0041F0020151605A6802F00C02082AFAD198
:1018AC00C6E700BF001002400000FFF800ED00E0AA
:1018BC0000200240746865726D6F636F75706C65A3
:1018CC002C2074656D7065726174757265203D3E77
:1018DC00205B25642C2025645D0A005379737465A4
:1018EC006D20696E69740A00303132333435363705
:1018FC0038394142434445460020202020202020F6
:10190C0020202828282828202020202020202020A3
:10191C0020202020202020202088101010101010B3
:10192C0010101010101010101004040404040404FF
:10193C000404041010101010101041414141414199
:10194C00010101010101010101010101010101017B
:10195C00010101011010101010104242424242428B
:10196C00020202020202020202020202020202024B
:10197C0002020202101010102000000000000000F3
:10198C00000000000000000000000000000000004B
:10199C00000000000000000000000000000000003B
:1019AC00000000000000000000000000000000002B
:1019BC00000000000000000000000000000000001B
:1019CC00000000000000000000000000000000000B
:1019DC0000000000000000000000000000000000FB
:1019EC0000000000000000000000000000000000EB
:0C19FC00000000000000000000000000DF
:081A080034EEFF7F0100000035
:101A1000020406080000000001020304010203049E
:081A200006070809041900087B
:040000050800010CE2
:00000001FF
