:020000040800F2
:1000000000500020951F0008D91F0008D91F0008C4
:10001000D91F0008D91F0008D91F000800000000E0
:10002000000000000000000000000000D91F0008D0
:10003000D91F000800000000D91F0008CD190008D2
:10004000D91F0008D91F0008D91F0008D91F0008B0
:10005000D91F0008D91F0008D91F0008D91F0008A0
:10006000D91F0008D91F0008D91F0008D91F000890
:10007000431D0008D91F0008D91F0008D91F000818
:10008000D91F0008D91F0008D91F0008D91F000870
:10009000D91F0008D91F0008D91F0008D91F000860
:1000A000D91F0008D91F0008D91F0008D91F000850
:1000B000D91F0008D91F0008D91F0008D91F000840
:1000C000D91F0008D91F0008D91F0008D91F000830
:1000D000D91F0008D91F0008D91F0008411D0008BA
:1000E000D91F0008D91F0008D91F00080000000010
:1000F0000000000000000000000000000000000000
:0C01000000000000000000005FF808F1A3
:1001100081F0004102E000BF83F0004330B54FEAB8
:1001200041044FEA430594EA050F08BF90EA020F25
:100130001FBF54EA000C55EA020C7FEA645C7FEAB8
:10014000655C00F0E2804FEA5454D4EB5555B8BFDB
:100150006D420CDD2C4480EA020281EA030382EA4C
:10016000000083EA010180EA020281EA0303362DDE
:1001700088BF30BD11F0004F4FEA01314FF4801CB1
:100180004CEA113102D0404261EB410113F0004FC3
:100190004FEA03334CEA133302D0524263EB43037A
:1001A00094EA050F00F0A780A4F10104D5F1200E18
:1001B0000DDB02FA0EFC22FA05F2801841F1000173
:1001C00003FA0EF2801843FA05F359410EE0A5F147
:1001D00020050EF1200E012A03FA0EFC28BF4CF078
:1001E000020C43FA05F3C01851EBE37101F000452E
:1001F00007D54FF0000EDCF1000C7EEB00006EEB3B
:100200000101B1F5801F1BD3B1F5001F0CD34908C4
:100210005FEA30004FEA3C0C04F101044FEA44521B
:1002200012F5800F80F09A80BCF1004F08BF5FEAA2
:10023000500C50F1000041EB045141EA050130BD82
:100240005FEA4C0C404141EB010111F4801FA4F125
:100250000104E9D191F0000F04BF01460020B1FA7A
:1002600081F308BF2033A3F10B03B3F120020CDAB2
:100270000C3208DD02F1140CC2F10C0201FA0CF090
:1002800021FA02F10CE002F11402D8BFC2F1200CF5
:1002900001FA02F120FA0CFCDCBF41EA0C019040AB
:1002A000E41AA2BF01EB0451294330BD6FEA0404F4
:1002B0001F3C1CDA0C340EDC04F11404C4F12002DF
:1002C00020FA04F001FA02F340EA030021FA04F3F1
:1002D00045EA030130BDC4F10C04C4F1200220FA48
:1002E00002F001FA04F340EA0300294630BD21FA86
:1002F00004F0294630BD94F0000F83F4801306BF4C
:1003000081F480110134013D4EE77FEA645C18BF3F
:100310007FEA655C29D094EA050F08BF90EA020FD6
:1003200005D054EA000C04BF1946104630BD91EACE
:10033000030F1EBF0021002030BD5FEA545C05D1D1
:100340004000494128BF41F0004130BD14F5800410
:100350003CBF01F5801130BD01F0004545F0FE4184
:1003600041F470014FF0000030BD7FEA645C1ABFB9
:10037000194610467FEA655C1CBF0B46024650EAF0
:10038000013406BF52EA033591EA030F41F400211C
:1003900030BD00BF90F0000F04BF0021704730B5A2
:1003A0004FF4806404F132044FF000054FF0000177
:1003B00050E700BF90F0000F04BF0021704730B538
:1003C0004FF4806404F1320410F0004548BF40420D
:1003D0004FF000013EE700BF42004FEAE2014FEA62
:1003E00031014FEA02701FBF12F07F4393F07F4F3D
:1003F00081F06051704792F0000F14BF93F07F4F6F
:10040000704730B54FF4607401F0004521F00041B1
:1004100020E700BF50EA010208BF704730B54FF037
:1004200000050AE050EA010208BF704730B511F03C
:10043000004502D5404261EB41014FF4806404F174
:1004400032045FEA915C3FF4DCAE4FF003025FEAF6
:10045000DC0C18BF03325FEADC0C18BF033202EB7E
:10046000DC02C2F1200300FA03FC20FA02F001FAD8
:1004700003FE40EA0E0021FA02F11444C1E600BF77
:1004800070B54FF0FF0C4CF4E06C1CEA11541DBF2A
:100490001CEA135594EA0C0F95EA0C0F00F0DEF8F5
:1004A0002C4481EA030621EA4C5123EA4C5350EADA
:1004B000013518BF52EA033541F4801143F480132B
:1004C00038D0A0FB02CE4FF00005E1FB02E506F0BC
:1004D0000042E0FB03E54FF00006E1FB03569CF011
:1004E000000F18BF4EF0010EA4F1FF04B6F5007F17
:1004F00064F5407404D25FEA4E0E6D4146EB060689
:1005000042EAC62141EA55514FEAC52040EA5E5011
:100510004FEACE2EB4F1FD0C88BFBCF5E06F1ED8BB
:10052000BEF1004F08BF5FEA500E50F1000041EBF2
:10053000045170BD06F0004646EA010140EA02009F
:1005400081EA0301B4EB5C04C2BFD4EB0C0541EAC1
:10055000045170BD41F480114FF0000E013C00F3D6
:10056000AB8014F1360FDEBF002001F0004170BDFA
:10057000C4F10004203C35DA0C341BDC04F1140413
:10058000C4F1200500FA05F320FA04F001FA05F29F
:1005900040EA020001F0004221F0004110EBD3706C
:1005A00021FA04F642EB06015EEA430E08BF20EA98
:1005B000D37070BDC4F10C04C4F1200500FA04F33B
:1005C00020FA05F001FA04F240EA020001F00041CD
:1005D00010EBD37041F100015EEA430E08BF20EA40
:1005E000D37070BDC4F1200500FA05F24EEA020E88
:1005F00020FA04F301FA05F243EA020321FA04F0B7
:1006000001F0004121FA04F220EA020000EBD3706D
:100610005EEA430E08BF20EAD37070BD94F0000F6D
:100620000FD101F00046400041EB010111F4801FA1
:1006300008BF013CF7D041EA060195F0000F18BF52
:10064000704703F00046520043EB030313F4801F8E
:1006500008BF013DF7D043EA0603704794EA0C0F48
:100660000CEA135518BF95EA0C0F0CD050EA41065E
:1006700018BF52EA4306D1D181EA030101F00041DB
:100680004FF0000070BD50EA410606BF1046194603
:1006900052EA430619D094EA0C0F02D150EA01360F
:1006A00013D195EA0C0F05D152EA03361CBF104650
:1006B00019460AD181EA030101F0004141F0FE41EF
:1006C00041F470014FF0000070BD41F0FE4141F473
:1006D000780170BD70B54FF0FF0C4CF4E06C1CEA73
:1006E00011541DBF1CEA135594EA0C0F95EA0C0F28
:1006F00000F0A7F8A4EB050481EA030E52EA0335E3
:100700004FEA013100F088804FEA03334FF0805503
:1007100045EA131343EA12634FEA022245EA111530
:1007200045EA10654FEA00260EF000419D4208BFE1
:10073000964244F1FD0404F5407402D25B084FEA8E
:100740003202B61A65EB03055B084FEA32024FF43A
:1007500080104FF4002CB6EB020E75EB030E22BF97
:10076000B61A754640EA0C005B084FEA3202B6EB57
:10077000020E75EB030E22BFB61A754640EA5C0006
:100780005B084FEA3202B6EB020E75EB030E22BF96
:10079000B61A754640EA9C005B084FEA3202B6EB97
:1007A000020E75EB030E22BFB61A754640EADC0056
:1007B00055EA060E18D04FEA051545EA16754FEAB8
:1007C00006164FEAC30343EA52734FEAC2025FEAD6
:1007D0001C1CC0D111F4801F0BD141EA00014FF065
:1007E00000004FF0004CB6E711F4801F04BF014336
:1007F0000020B4F1FD0C88BFBCF5E06F3FF6AFAE52
:10080000B5EB030C04BFB6EB020C5FEA500C50F1E1
:10081000000041EB045170BD0EF0004E4EEA113164
:1008200014EB5C04C2BFD4EB0C0541EA045170BD6B
:1008300041F480114FF0000E013C90E645EA060EAF
:100840008DE60CEA135594EA0C0F08BF95EA0C0FDD
:100850003FF43BAF94EA0C0F0AD150EA01347FF425
:1008600034AF95EA0C0F7FF425AF104619462CE7FC
:1008700095EA0C0F06D152EA03353FF4FDAE10465F
:10088000194622E750EA410618BF52EA43067FF4B0
:10089000C5AE50EA41047FF40DAF52EA43057FF440
:1008A000EBAE12E74FEA4102B2F1E04324BFB3F5E9
:1008B000001CDCF1FE5C0DD901F0004C4FEAC002D7
:1008C0004CEA5070B2F1004F40EB830008BF20F0BB
:1008D0000100704711F0804F21D113F13872BCBF75
:1008E00001F00040704741F480114FEA5252C2F1CA
:1008F0001802C2F1200C10FA0CF320FA02F018BF13
:1009000040F001004FEAC1234FEAD32303FA0CFC65
:1009100040EA0C0023FA02F34FEA4303CCE77FEAF4
:10092000625307D150EA01331EBF4FF0FE4040F43E
:100930004000704701F0004040F0FE4040F40000ED
:10094000704700BF80F0004002E000BF81F000412E
:1009500042001FBF5FEA410392EA030F7FEA226C65
:100960007FEA236C6AD04FEA1262D2EB1363C1BFF5
:10097000D218414048404140B8BF5B42192B88BF64
:10098000704710F0004F40F4000020F07F4018BF87
:10099000404211F0004F41F4000121F07F4118BFA7
:1009A000494292EA030F3FD0A2F1010241FA03FC4F
:1009B00010EB0C00C3F1200301FA03F100F0004337
:1009C00002D5494260EB4000B0F5000F13D3B0F1FF
:1009D000807F06D340084FEA310102F10102FE2A6E
:1009E00051D2B1F1004F40EBC25008BF20F00100DE
:1009F00040EA03007047490040EB000010F4000F8C
:100A0000A2F10102EDD1B0FA80FCACF1080CB2EB1E
:100A10000C0200FA0CF0AABF00EBC250524218437D
:100A2000BCBFD0401843704792F0000F81F4000122
:100A300006BF80F400000132013BB5E74FEA4103F5
:100A40007FEA226C18BF7FEA236C21D092EA030F61
:100A500004D092F0000F08BF0846704790EA010FDB
:100A60001CBF0020704712F07F4F04D1400028BF08
:100A700040F00040704712F100723CBF00F50000EA
:100A8000704700F0004343F0FE4040F40000704720
:100A90007FEA226216BF08467FEA236301464202CC
:100AA00006BF5FEA412390EA010F40F480007047DF
:100AB0004FF0000304E000BF10F0004348BF404285
:100AC0005FEA000C08BF704743F0964301464FF0C1
:100AD00000001CE050EA010208BF70474FF000031D
:100AE0000AE000BF50EA010208BF704711F000435E
:100AF00002D5404261EB41015FEA010C02BF84462E
:100B00000146002043F0B64308BFA3F18053A3F58C
:100B10000003BCFA8CF2083AA3EBC25310DB01FAD3
:100B200002FC634400FA02FCC2F12002BCF1004F57
:100B300020FA02F243EB020008BF20F001007047E8
:100B400002F1200201FA02FCC2F1200250EA4C003C
:100B500021FA02F243EB020008BF20EADC70704782
:100B60004FF0FF0C1CEAD0521EBF1CEAD15392EA90
:100B70000C0F93EA0C0F6FD01A4480EA010C40026C
:100B800018BF5FEA41211ED04FF0006343EA5010C6
:100B900043EA5111A0FB01310CF00040B1F5000F08
:100BA0003EBF490041EAD3715B0040EA010062F1B7
:100BB0007F02FD2A1DD8B3F1004F40EBC25008BFA1
:100BC00020F00100704790F0000F0CF0004C08BFBF
:100BD00049024CEA502040EA51207F3AC2BFD2F18C
:100BE000FF0340EAC250704740F400004FF000039A
:100BF000013A5DDC12F1190FDCBF00F000407047D4
:100C0000C2F10002410021FA02F1C2F1200200FA11
:100C100002FC5FEA310040F1000053EA4C0308BFD8
:100C200020EADC70704792F0000F00F0004C02BF29
:100C3000400010F4000F013AF9D040EA0C0093F0A4
:100C4000000F01F0004C02BF490011F4000F013BFE
:100C5000F9D041EA0C018FE70CEAD15392EA0C0F6C
:100C600018BF93EA0C0F0AD030F0004C18BF31F0D7
:100C7000004CD8D180EA010000F00040704790F0AD
:100C8000000F17BF90F0004F084691F0000F91F051
:100C9000004F14D092EA0C0F01D142020FD193EA17
:100CA0000C0F03D14B0218BF084608D180EA01009F
:100CB00000F0004040F0FE4040F40000704740F07B
:100CC000FE4040F4400070474FF0FF0C1CEAD05249
:100CD0001EBF1CEAD15392EA0C0F93EA0C0F69D0A5
:100CE000A2EB030280EA010C49024FEA402037D010
:100CF0004FF0805343EA111143EA10130CF0004007
:100D00008B4238BF5B0042F17D024FF4000C8B42F6
:100D100024BF5B1A40EA0C00B3EB510F24BFA3EBD6
:100D2000510340EA5C00B3EB910F24BFA3EB9103A6
:100D300040EA9C00B3EBD10F24BFA3EBD10340EA00
:100D4000DC001B0118BF5FEA1C1CE0D1FD2A3FF646
:100D500050AF8B4240EBC25008BF20F001007047FB
:100D60000CF0004C4CEA50207F32C2BFD2F1FF039E
:100D700040EAC250704740F400004FF00003013ACF
:100D800037E792F0000F00F0004C02BF400010F473
:100D9000000F013AF9D040EA0C0093F0000F01F087
:100DA000004C02BF490011F4000F013BF9D041EAA9
:100DB0000C0195E70CEAD15392EA0C0F08D14202DC
:100DC0007FF47DAF93EA0C0F7FF470AF084676E7AF
:100DD00093EA0C0F04D14B023FF44CAF08466EE788
:100DE00030F0004C18BF31F0004CCAD130F0004256
:100DF0007FF45CAF31F000437FF43CAF5FE700BFAE
:100E00004FF0FF3C06E000BF4FF0010C02E000BFD6
:100E10004FF0010C4DF804CD4FEA40024FEA410378
:100E20007FEA226C18BF7FEA236C11D001B052EA2E
:100E3000530C18BF90EA010F58BFB2EB030088BFF4
:100E4000C81738BF6FEAE17018BF40F00100704763
:100E50007FEA226C02D15FEA402C05D17FEA236C45
:100E6000E4D15FEA412CE1D05DF8040B704700BF8C
:100E7000844608466146FFE70FB5FFF7C9FF002823
:100E800048BF10F1000F0FBD4DF808EDFFF7F4FF5C
:100E90000CBF012000205DF808FB00BF4DF808EDF5
:100EA000FFF7EAFF34BF012000205DF808FB00BF18
:100EB0004DF808EDFFF7E0FF94BF012000205DF83A
:100EC00008FB00BF4DF808EDFFF7D2FF94BF0120EB
:100ED00000205DF808FB00BF4DF808EDFFF7C8FFE4
:100EE00034BF012000205DF808FB00BF4FEA40023C
:100EF000B2F1FE4F0FD34FF09E03B3EB12620DD948
:100F00004FEA002343F0004310F0004F23FA02F0B1
:100F100018BF404270474FF00000704712F1610F58
:100F200001D1420205D110F0004008BF6FF000402F
:100F300070474FF0000070477BB972B90029BEBFFF
:100F400000204FF0004106E008BF00281CBF6FF0F2
:100F500000414FF0FF3000F03BB882B0EC462DE985
:100F6000005000F005F8DDF804E002B00CBC70475A
:100F70002DE9F041069C904606460F461D4600F0BE
:100F800029F808FB01FCA8FB002300FB05C5B21AE9
:100F90002B4467EB03038646C4E90023BDE8F081D8
:100FA0002DE9F843089E1746804689461D4600F005
:100FB00067F900FB05F3A0FB074507FB0137B8EB1A
:100FC00004043D4469EB0505C6E90045BDE8F88326
:100FD000704700BF00292DE9F043C0F2A880002629
:100FE000002BC0F29E8081468E4690469C46174656
:100FF00004460D46002B3DD18A4259D9B2FA82F3FC
:101000003BB1C3F120029D4020FA02F29F401543FC
:101010009C40390CB5FBF1F01FFA87FE01FB10551F
:101020000EFB00F3220C42EA0545AB4209D9ED194B
:1010300000F1FF3280F00B81AB4240F208810238B0
:101040003D44ED1AB5FBF1F301FB13550EFB03FE16
:10105000A4B244EA0545AE4508D9ED1903F1FF32C3
:1010600080F0F780AE4540F2F480023B43EA004353
:10107000002203E08B420FD900221346341C18BF14
:10108000012460424FF0000565EB45015840514096
:1010900000196941BDE8F083B3FA83F2002A40F0F9
:1010A00089808B4202D3804500F2E2800123E5E78C
:1010B00012B90123B3FBF2F7B7FA87F8B8F1000FC2
:1010C0003BD1ED1B4FEA174C1FFA87FE0122B5FBFF
:1010D000FCF00CFB10550EFB00F3210C41EA05451A
:1010E000AB4207D9ED1900F1FF3102D2AB4200F259
:1010F000C3800846ED1AB5FBFCF30CFB13550EFB41
:1011000003FEA4B244EA0545AE4507D9ED1903F143
:10111000FF3102D2AE4500F2AD800B4643EA0043F8
:10112000ACE752426FEA060663EB43035BE74042DB
:1011300061EB41014FF0FF3652E707FA08F7C8F1BB
:10114000200225FA02F34FEA174CB3FBFCF11FFA19
:1011500087FE0CFB113324FA02F205FA08F50EFBA8
:1011600001F92A43100C40EA0343994504FA08F4B4
:1011700007D9DB1901F1FF3078D2994576D90239C8
:101180003B44C9EB0303B3FBFCF00CFB10330EFB39
:1011900000F592B242EA03439D4207D9DB1900F100
:1011A000FF325FD29D425DD902383B445D1B40EA6D
:1011B00001428CE7C2F1200328FA03F10CFA02FC89
:1011C00041EA0C0C4FEA1C402EFA03F1B1FBF0F59A
:1011D0001FFA8CF700FB151129FA03F30EFA02FE31
:1011E00007FB05F943EA0E0E4FEA1E4343EA0141AD
:1011F000894508FA02F808D911EB0C0105F1FF3313
:1012000032D2894530D9023D6144C9EB0101B1FBBD
:10121000F0F300FB131107FB03F71FFA8EFE4EEAF3
:10122000014E774508D91EEB0C0E03F1FF3117D2A2
:10123000774515D9023BE64443EA0543A3FB0889F9
:10124000C7EB0E0ECE4509D305D0002216E7104697
:10125000F7E613460AE794404445F6D2013BF4E72B
:101260000B46E9E71046A1E71D46CEE7014688E7B1
:10127000134603E7023B51E702383D443AE700BF1B
:101280002DE9F043002B44D18A42154604464FD93C
:10129000B2FA82F70E464FB1C7F12003B94020FAE7
:1012A00003F602FA07F50E4300FA07F42F0CB6FB1B
:1012B000F7F01FFA85FE07FB10620EFB00F1260C0B
:1012C00046EA0243994209D95B1900F1FF3280F0E6
:1012D000EE80994240F2EB8002382B44591AB1FB60
:1012E000F7F307FB13110EFB03FEA4B244EA01411E
:1012F0008E4508D9491903F1FF3280F0DA808E4516
:1013000040F2D780023B43EA004000263146BDE868
:10131000F0838B4247D8B3FA83F6002E48D18B4234
:1013200002D3824200F2CF8001203146BDE8F08333
:1013300012B90125B5FBF2F5B5FA85FCBCF1000F39
:1013400078D1491B2F0C1FFA85FE0126B1FBF7F05F
:1013500007FB10110EFB00F2230C43EA01418A4205
:1013600007D9491900F1FF3302D28A4200F2BC804A
:101370001846891AB1FBF7F307FB13110EFB03FEA6
:10138000A4B244EA0142964508D9521903F1FF314B
:1013900080F09180964540F28E80023B43EA004007
:1013A0003146BDE8F083002630463146BDE8F08383
:1013B000C6F1200422FA04F5B3402B4321FA04F7C6
:1013C0004FEA1348B7FBF8FC1FFA83F908FB1C77B8
:1013D00020FA04FE01FA06F509FB0CF44EEA0505B5
:1013E0004FEA154E4EEA0747BC4202FA06F204D90C
:1013F000FF180CF1FF3168D38C463F1BB7FBF8F4A4
:1014000008FB147709FB04F9ADB245EA07418945A9
:1014100004D9C91804F1FF355DD32C4644EA0C44C5
:10142000A4FB0223C9EB0101994249D345D02046D0
:1014300000266BE7CCF1200405FA0CF521FA04F341
:101440002A0CB3FBF2F61FFA85FE02FB163820FACF
:1014500004F701FA0CF10EFB06F90F433C0C44EAC9
:101460000843994500FA0CF407D95B1906F1FF31DE
:1014700038D2994536D9023E2B44C9EB0303B3FB5E
:10148000F2F002FB10330EFB00F1BFB247EA034358
:10149000994207D95B1900F1FF3721D299421FD930
:1014A00002382B441746591A40EA06464EE71046C2
:1014B00014E7134627E70B4670E7B0409042B6D2D8
:1014C000601E002622E7304620E7BC4294D9ACF1EA
:1014D000020C1F4491E789459FD9023C19449DE7BE
:1014E0003846DFE70E46C8E70238294441E700BF27
:1014F000C27810B503780AB3164A03F16043D46882
:101500004278E443C4F30224C4F1040102FA01F175
:101510000F22E240847803F5614322400A4312011E
:10152000D2B283F8002303780122590903F01F0384
:1015300002FA03F3084A42F8213010BD5A0901218A
:1015400003F01F03994002F12003034A42F82310DD
:1015500010BD00BF00ED00E000E100E0044B0428F6
:101560001A680CBF42F0040222F004021A607047AD
:1015700010E000E0034A136803F0380318431060DA
:10158000704700BF00200240044B1A6822F010028E
:101590001A601A6810431860704700BF00200240AC
:1015A000CA78F0B502F00F03D20644BF8A7813431D
:1015B0000A78DAB10268002401260D88A640354079
:1015C000B5420FD1A7000F26BE4022EA060203FA59
:1015D00007F63243CE78282E01D1456102E0482E2D
:1015E00008BF05610134082CE6D102600A88FF2A91
:1015F0001DD94268002404F108050126AE400D887B
:101600003540B5420FD1A7000F26BE4022EA0602A0
:1016100003FA07F63243CE78282E08BF4561CE780C
:10162000482E08BF05610134082CE4D14260F0BDAA
:1016300001617047416170470D4B1A6842F0010229
:101640001A6059680B4A0A405A601A6822F084727C
:1016500022F480321A601A6822F480221A605A68D2
:1016600022F4FE025A604FF41F029A60704700BFD6
:10167000001002400000FFF80C4BB0F5803F1A68E4
:1016800022F480321A601A6822F480221A6003D091
:10169000B0F5802F04D070471A6842F4803202E01F
:1016A0001A6842F4A0221A60704700BF001002407E
:1016B000034A536823F47C1319430843506070476E
:1016C00000100240014B1860704700BF60004242AA
:1016D000034A536823F0030318435060704700BF68
:1016E00000100240024B586800F00C00704700BF29
:1016F00000100240034A536823F0F003184350607F
:10170000704700BF00100240034A536823F4E063AF
:1017100018435060704700BF00100240034A5368EE
:1017200023F4605343EAC000506070470010024049
:1017300010B51D4A536803F00C03042B03D0082B8B
:1017400003D01A4B11E01A4B0FE053685168C3F3F2
:101750008343CC0303F1020301D4164904E051682A
:1017600089034CBF114912494B4303605368124C23
:10177000C3F30313E15C0368CB4043605168C1F3DA
:101780000221615C23FA01F181605168C1F3C22139
:10179000615CCB40C36052680849C2F381328A5C05
:1017A000B3FBF2F3036110BD0010024000127A0097
:1017B0000024F40000093D00040000200000002087
:1017C000044B9A6909B1104301E022EA00009861D4
:1017D000704700BF00100240044BDA6909B11043A2
:1017E00001E022EA0000D861704700BF001002400B
:1017F0004209012A074B01D11B6803E0022A0CBFF2
:101800001B6A5B6A00F01F0023FA00F000F0010081
:10181000704700BF0010024007B50023019331203C
:10182000FFF7E6FF019B01330193019BB3F5A06F26
:1018300001D00028F3D03120FFF7DAFF003018BFC5
:10184000012003B05DF804FB03884A8810B503F457
:1018500041540B8813438A881343CA8813430A8967
:1018600013434A8913438A891343CA891343234381
:101870009BB20380838B23F400631B041B0C8383C4
:101880000B8A038210BD038819B19BB243F0400359
:1018900003E023F040031B041B0C0380704781818D
:1018A0007047808980B270470389194214BF0120B4
:1018B0000020704730B50D460446038ACA889BB2A3
:1018C00023F440531343038282890989AB8892B27F
:1018D0000B43698922F4B0520B4322F00C021343EC
:1018E0009BB28381838AAA899BB223F4407387B019
:1018F0001343838201A8FFF71BFF039B049A0E4941
:101900008C4218BF1A46192353432A689200B3FB2E
:10191000F2F26423B2FBF3F00001010903FB112290
:1019200012013232B2FBF3F303F00F0303439BB215
:10193000238107B030BD00BF00380140838919B151
:101940009BB243F4005303E023F400531B041B0C2D
:101950008381704710B5C1F34214012301F01F01C8
:10196000012C03FA01F301D10C3003E0022C0CBF6F
:101970001030143012B10268134302E0026822EA08
:101980000303036010BD000007B500F0DBF9482039
:1019900000F034F900F0AEF800F0BEF800F0CAF83C
:1019A000044600F0D1F8FEF717FD2246CDE900010C
:1019B0000449054800F0E0FA4FF4FA7000F034F9F9
:1019C000EAE700BFD0200008291D0008704700008A
:1019D00070B54FF4804086B00121FFF7FDFE284C22
:1019E00009200121FFF7ECFE03234FF480558DF809
:1019F00002302046102369468DF803301826ADF8D2
:101A00000050FFF7CDFD4FF42043204669468DF886
:101A10000360ADF80030FFF7C3FD04238DF80330F9
:101A200020464FF480436946ADF80030FFF7B8FD1B
:101A3000ADF81060134E00234FF48272ADF80430FD
:101A4000ADF80620ADF808304FF40072ADF80A305A
:101A5000ADF80C30ADF812303046072301A9ADF8CF
:101A60000E20ADF81430FFF7EFFE30460121FFF7EE
:101A70000AFF20462946FFF7DBFD06B070BD00BF18
:101A8000000C01400038004010B504460A4802210D
:101A9000FFF70AFF0028F9D007482146FFF7FFFEAD
:101AA00005480121FFF700FF0028F9D00248FFF7A1
:101AB000F8FEC0B210BD00BF0038004070B50C4643
:101AC00006464FF480510A48FFF7B4FD013C751EED
:101AD0003444A54205D0FF20FFF7D6FF05F8010FDB
:101AE000F7E703484FF48051FFF7A2FD002070BDD7
:101AF000000C0140FFF76CBF37B505460C4601A846
:101B00000221FFF7DBFF9DF8043000202B709DF8C9
:101B10000530237003B030BD08B504490448FFF711
:101B2000EBFF003018BF012008BD00BF1D000020E2
:101B30001E000020024B1878C0F38000704700BFE1
:101B40001D0000200000000008B50D4B18780D4B5B
:101B500000F07F001B78DB0843EA4010FEF72AFC08
:101B60000022094BFEF78CFC03A3D3E90023FEF708
:101B700087FCFEF797FE08BD0000000000FE8F40C6
:101B80001E0000201D0000200000303F10B5FFF7B0
:101B900053FD4FF48030FFF76FFDFFF73DFE012846
:101BA0000446FAD11020FFF7EFFC0220FFF7E2FC19
:101BB0000020FFF79FFD0020FFF7B0FD4FF480608D
:101BC000FFF7A2FD4FF480304FF4E011FFF770FDF6
:101BD0002046FFF777FD3920FFF70AFE0028FAD0EC
:101BE0000220FFF775FDFFF77DFD0828FBD10120DE
:101BF0000146BDE81040FFF7E3BD000010B5044604
:101C00006FF00400FFF7AAFC054BE0081870C0EB6A
:101C1000401300EB8300034BC000188010BD00BFD1
:101C2000180000201A0000200B4B00221B8858438C
:101C30000A4B58609A601A6842F001021A601968EB
:101C4000064A01F001110129F9D0136823F00103BC
:101C500013600023936070471A00002010E000E03A
:101C600030B5042087B00121FFF7AAFD254C4FF4C1
:101C700080400121FFF7A4FD4FF48063ADF80030F0
:101C80002046042369468DF80330FFF789FC4FF4A2
:101C90000073ADF8003003231B4D8DF80230204651
:101CA000182369468DF80330FFF77AFC4FF4E133CF
:101CB000002402A9029328460C23ADF81230ADF897
:101CC0000C40ADF80E40ADF81040ADF81440FFF7F1
:101CD000F1FD25238DF805408DF8064001A801246B
:101CE0008DF804308DF80740FFF702FC28462246A5
:101CF00040F22551FFF72EFE28462146FFF71EFE33
:101D000007B030BD0008014000380140084481425E
:101D100007D0044B1A881206FBD511F8012B9A80C4
:101D2000F5E770470038014007B502A941F8040DF6
:101D30000120FFF7EBFF9DF8040003B05DF804FB02
:101D40007047704710B5074C23784BB9FFF71EFF5B
:101D5000FFF786FF0448054900F00EF901232370C0
:101D600010BD00BF1C000020291D0008F92000083C
:101D70000123092804DD0A22013390FBF2F0F8E781
:101D8000184670472DE9F84F0D468246084693469F
:101D90001C46FFF7EDFF002D064604D13020D0474A
:101DA0000120BDE8F88F05DABBF10A0F02D12D2022
:101DB0006D42D047A6420ADAA41B2646002E03DD58
:101DC0003020D047013EF9E724EAE47400E0002423
:101DD000012600273B46284600213246FFF7ACF893
:101DE00050EA0103D8464FEAEB7907D006FB09F326
:101DF0000BFB0733A6FB0B671F44EBE73046394666
:101E00004B464246FFF798F806460F4656EA070348
:101E10000ED032463B4628460021FFF78DF8424659
:101E20004B46FFF789F8044B0134985CD047E5E74F
:101E30002046BDE8F88F00BF062100082DE9F047D5
:101E400007460E46154600243078002800F08E80A4
:101E5000252840F08780474B4FF006091968013666
:101E6000324612F8013BC818407880070AD12E2B61
:101E7000F5D17378C8184078460748BFA3F13009F8
:101E80001646ECE7662B16461BD003D8582B0DD010
:101E9000642B04E0732B55D0782B07D0692BD3D15A
:101EA00005F10408384629680A2204E03846296802
:101EB00005F1040810220023FFF764FF454604449F
:101EC000C2E7073525F00703D3E9000103F1080550
:101ED000FEF7E8FC00218046FEF7E0FF20B12D2050
:101EE000B84708F1004801344046FEF7FFFF82463C
:101EF000002351460A223846FFF744FF04442E20AF
:101F0000B8475046FEF7D8FD01464046FEF71EFD95
:101F10000134804601230A204B4503DA0A2250434C
:101F20000133F9E7FEF7C8FD01464046FEF718FE0B
:101F3000FEF7DCFF0A2201464B463846FFF722FF38
:101F4000044481E7D5F8008005F104094546C8EB53
:101F500004032B4415F8010B08B1B847F7E74D46C9
:101F60001C4671E70136B84701346DE72046BDE8ED
:101F7000F08700BF140000200EB403B503AA52F886
:101F8000041B0192FFF75AFF02B05DF804EB03B0A7
:101F900070470000002103E00A4B5B5843500431B6
:101FA00009480A4B42189A42F6D3094A02E0002334
:101FB00042F8043B074B9A42F9D300F00FF8FFF7C1
:101FC000E3FC7047202200080000002018000020D9
:101FD0001800002020000020FEE70000384B82B0EF
:101FE0001A6842F001021A605968364A0A405A607B
:101FF0001A6822F0847222F480321A601A6822F47D
:1020000080221A605A6822F4FE025A604FF41F02BE
:102010009A600022009201921A6842F480321A609B
:102020001A6802F400320192009A01320092019A79
:102030001AB9009AB2F5A06FF2D11A6812F4003200
:1020400018BF01220192019A012A05D01E4B4FF0C0
:1020500000629A6002B070471C4A116841F010019A
:102060001160116821F003011160116841F0020153
:1020700011605A685A605A685A605A6842F480621D
:102080005A605A6822F47C125A605A6842F4E81284
:102090005A601A6842F080721A601968084A890109
:1020A000FBD5516821F003015160516841F00201F4
:1020B00051605A6802F00C02082AFAD1C6E700BF44
:1020C000001002400000FFF800ED00E00020024098
:1020D000746865726D6F636F75706C652C207465C4
:1020E0006D7065726174757265203D3E205B25647C
:1020F0002C20252E32665D0A0053797374656D209D
:10210000696E69740A003031323334353637383904
:10211000414243444546002020202020202020200A
:102120002828282828202020202020202020202087
:1021300020202020202020881010101010101010B7
:1021400010101010101010040404040404040404FB
:102150000410101010101010414141414141010183
:10216000010101010101010101010101010101015F
:10217000010110101010101042424242424202026D
:10218000020202020202020202020202020202022F
:1021900002021010101020000000000000000000DB
:1021A000000000000000000000000000000000002F
:1021B000000000000000000000000000000000001F
:1021C000000000000000000000000000000000000F
:1021D00000000000000000000000000000000000FF
:1021E00000000000000000000000000000000000EF
:1021F00000000000000000000000000000000000DF
:1022000000000000000000000000000000000000CE
:082210000000000000000000C6
:08221800BCEDFF7F0100000096
:102220000204060800000000010203040102030486
:08223000060708091621000849
:0400000508000110DE
:00000001FF
