:020000040800F2
:1000000000500020A5010008E9010008E9010008EE
:10001000E9010008E9010008E9010008000000000A
:10002000000000000000000000000000E9010008DE
:10003000E901000800000000E9010008A301000830
:10004000E9010008E9010008E9010008E9010008E8
:10005000E9010008E9010008E9010008E9010008D8
:10006000E9010008E9010008E9010008E9010008C8
:10007000E9010008E9010008E9010008E9010008B8
:10008000E9010008E9010008E9010008E9010008A8
:10009000E9010008E9010008E9010008E901000898
:1000A000E9010008E9010008E9010008E901000888
:1000B000E9010008E9010008E9010008E901000878
:1000C000E9010008E9010008E9010008E901000868
:1000D000E9010008E9010008E9010008E901000858
:1000E000E9010008E9010008E9010008000000003A
:1000F0000000000000000000000000000000000000
:0C01000000000000000000005FF808F1A3
:10010C00CA78F0B502F00F03D20644BF8A781343C5
:10011C000A78DAB10268002401260D88A640354021
:10012C00B5420FD1A7000F26BE4022EA060203FA01
:10013C0007F63243CE78282E01D1456102E0482ED5
:10014C0008BF05610134082CE6D102600A88FF2A39
:10015C001DD94268002404F108050126AE400D8823
:10016C003540B5420FD1A7000F26BE4022EA060249
:10017C0003FA07F63243CE78282E08BF4561CE78B5
:10018C00482E08BF05610134082CE4D14260F0BD53
:10019C0041617047FEE77047002103E00A4B5B5852
:1001AC004350043109480A4B42189A42F6D3094A83
:1001BC0002E0002342F8043B074B9A42F9D300F0CB
:1001CC000FF8FFF7E7FF704704030008000000205A
:1001DC00000000200000002000000020FEE70000CE
:1001EC001FB5414B1A6842F001021A6059683F4A28
:1001FC000A405A601A6822F0847222F480321A6023
:10020C001A6822F480221A605A6822F4FE025A609C
:10021C004FF41F029A600022019202921A6842F473
:10022C0080321A601A6802F400320292019A01328A
:10023C000192029A1AB9019AB2F5A06FF2D11A681A
:10024C0012F4003218BF01220292029A012A32D112
:10025C00274A116841F010011160116821F0030167
:10026C001160116841F0020111605A685A605A68B5
:10027C005A605A6842F480625A605A6822F47C12BE
:10028C005A605A6842F4FC125A601A6842F0807242
:10029C001A601968144A8901FBD5516821F00301D1
:1002AC005160516841F0020151605A6802F00C0231
:1002BC00082AFAD115E03023ADF80C3001241023B4
:1002CC000C4803A98DF80F308DF80E40FFF718FF7E
:1002DC0008480021FFF75CFF06482146FFF758FF4E
:1002EC00FEE704B010BD00BF001002400000FFF894
:0802FC0000200240000C01404B
:040000050800010CE2
:00000001FF
